:040000005EEF3FF080
:107EBC00000EF86E000163EF3FF09490949294944E
:107ECC0095909592959495969598959A8280000E9A
:107EDC000B6E000E0A6E000E096E010E086E0AC0C3
:107EEC0001F00BC002F0000E036EA4EC3FF0085042
:107EFC000A2609500B22090E0A180B10D8A404D01C
:107F0C00000E0B6E000E05D00BAE04D0000E0B6EE7
:107F1C00080E0A6E0AC001F00BC002F0010E036ECF
:107F2C00A4EC3FF0020E076E450E066EAA0EE82E6C
:107F3C00FED7062EFCD7072EFAD7D1D736D003B0F2
:107F4C0002D0829001D08280120003B002D08292C3
:107F5C0001D08282120003B002D0829401D08284BC
:107F6C00120003B002D0839001D08380120003B0C2
:107F7C0002D0839201D08382120003B002D083948A
:107F8C0001D08384120003B002D0839601D0838683
:107F9C00120003B002D0839801D08388120003B082
:107FAC0002D0839A01D0838A120001C004F002C06F
:107FBC0005F00550000AD8A412000450000AD8B4E9
:107FCC00BED7010AD8B4C1D7030AD8B4C4D7010AA2
:107FDC00D8B4C7D7070AD8B4CAD7010AD8B4CDD7F2
:107FEC00030AD8B4D0D7010AD8B4D3D70F0AD8A46F
:047FFC001200D5D7C3
:020000040030CA
:0E000000000C191EFF0385FF0FC00FE00F401C
:00000001FF
