:0400000045EF3FF099
:107E8A00000EF86E00014AEF3FF094909492949499
:107E9A0095909592959495969598959A958C000EAD
:107EAA000D6E000E0C6E8280000E096E010E086EB9
:107EBA00010E076E0CC001F00DC002F0000E036E39
:107ECA00A4EC3FF008500C2609500D22090E0C189C
:107EDA000D10D8A404D0000E0D6E000E05D00DAE04
:107EEA0004D0000E0D6E080E0C6E0CC001F00DC011
:107EFA0002F0010E036EA4EC3FF0000E0B6E000EB2
:107F0A000A6E83AC09D00750D8B408D0086C091E91
:107F1A00D8B0092A000E01D0010E076E070E066EB0
:107F2A007D0EE82EFED7062EFCD700F00A4A0B2A51
:107F3A000B50C0E11E0E0A5CD8B0BCD7E2D736D0CF
:107F4A0003B002D0829001D08280120003B002D026
:107F5A00829201D08282120003B002D0829401D0B0
:107F6A008284120003B002D0839001D08380120071
:107F7A0003B002D0839201D08382120003B002D0F0
:107F8A00839401D08384120003B002D0839601D077
:107F9A008386120003B002D0839801D0838812002E
:107FAA0003B002D0839A01D0838A120001C004F080
:107FBA0002C005F00550000AD8A412000450000AB5
:107FCA00D8B4BED7010AD8B4C1D7030AD8B4C4D723
:107FDA00010AD8B4C7D7070AD8B4CAD7010AD8B48D
:107FEA00CDD7030AD8B4D0D7010AD8B4D3D70F0A49
:067FFA00D8A41200D5D747
:020000040030CA
:0E000000000C191EFF0385FF0FC00FE00F401C
:00000001FF
